:020000040800F2
:10000000F80E00109D010008411200083D12000882
:100010003F120008411100081913000800000000F9
:10002000000000000000000000000000591200085D
:100030004311000800000000571200085D1200087C
:10004000B7010008B7010008B7010008B7010008B0
:10005000B7010008B7010008B7010008B7010008A0
:10006000B7010008B7010008B7010008B701000890
:10007000B7010008B7010008B7010008B701000880
:10008000B7010008B7010008B7010008B701000870
:10009000B7010008B7010008B7010008B701000860
:1000A000B7010008B7010008B7010008B701000850
:1000B00079120008B701000800000000B70100082D
:1000C000B70100080000000000000000B7010008B0
:1000D00000000000B7010008B7010008B7010008E0
:1000E000B7010008B7010008000000000000000090
:1000F0000000000000000000000000000000000000
:1001000000000000000000000000000000000000EF
:100110000000000000000000B7010008B70100085F
:1001200000000000000000000000000000000000CF
:1001300000000000000000000000000000000000BF
:10014000B7010008B701000800000000000000002F
:10015000000000000000000000000000000000009F
:10016000000000000000000000000000000000008F
:10017000000000000000000000000000000000007F
:1001800000000000B7010008DFF80CD000F0FEFC12
:100190000048004799140008F80E001006488047F0
:1001A00006480047FEE7FEE7FEE7FEE7FEE7FEE75C
:1001B000FEE7FEE7FEE7FEE7691200088901000896
:1001C00040EA01039B0703D009E008C9121F08C0D9
:1001D000042AFAD203E011F8013B00F8013B521E59
:1001E000F9D27047D2B201E000F8012B491EFBD2D0
:1001F00070470022F6E710B513460A460446194632
:10020000FFF7F0FF204610BD30B50446002003463E
:1002100000E05B1C934203D2E05CCD5C401BF8D055
:1002200030BD00000FB400B589B00BA800906A463D
:1002300003480A9900F0C0FA09B05DF814FB000009
:10024000000000202DE9FF5F1D464FF0FF3BD5E980
:10025000014691465F464FF00008A9697F1C01984E
:100260008847296A824688470028F6D1BAF1FF3FBD
:100270000CD024F4C064002E19DD600614D5BAF148
:100280002B0F09D0BAF12D0F0ED103E0584604B060
:10029000BDE8F09F44F48064A9697F1C01988847F9
:1002A000761E8246002E02DDBAF1300F03D0B9F17E
:1002B000000F26D032E0A969761E44F400747F1C3A
:1002C000019888478246002E05DDBAF1780F06D0E6
:1002D000BAF1580F03D0B9F1000F10D01EE0B9F1F8
:1002E000000F02D0B9F1100F18D1A969761E24F4BD
:1002F00000747F1C019888478246102002E0082085
:1003000000E00A20814609E008FB0908A969761E79
:1003100044F400747F1C019888478246002E05DD56
:100320004946504600F03AFA0028EDDAE9690198AA
:100330008847A00502D46FF00100A8E7E00725D1A7
:10034000600613D5600502D5C8F1000000E0404604
:1003500029680A1D2A600968220501D5087015E080
:10036000220701D5088011E008600FE02868011D10
:1003700029600068210502D580F8008006E0210789
:1003800002D5A0F8008001E0C0F8008038467EE782
:100390002DE9FF4F087883B09946FF2805D0491C06
:1003A0002D2804D00024002008E000200BE00124C8
:1003B000F9E700EB800003EB4000491C0B78FF2BB2
:1003C000F7D104B1404200230293147819461D4628
:1003D0002D2C01D02B2C04D1521C2D2C13D00024F9
:1003E0000294AA461478FF2C0FD00A25A3FB0578A7
:1003F00001FB05814FF0000C03FB0C11521CE319AB
:100400004AEB0101EEE70124EAE7814453EA0100E7
:1004100002D019F5C87F06DA03980021C0E900115F
:1004200007B0BDE8F08F0025AE4E2F46DFF8B8824A
:10043000184600F053FBCDE90001B9F1000002DAE3
:10044000C9F1000400E004460023A74A1AEB030B9D
:1004500042EB045A12E0E00707D02A4633463846FA
:10046000414600F05AFA074688462A463346104667
:10047000194600F052FA05460E466410002CEAD1E7
:10048000DDE90001B9F1000F5A46534606DA00F0E3
:10049000B6FA3A46434600F0B2FA05E000F03DFAFB
:1004A0003A46434600F039FA029A0AB181F0004117
:1004B000039AC2E90001B3E72DE9FF4F1F468DB053
:1004C000D7E901464FF0FF382E2045464FF000098E
:1004D0000B90B9696D1C0E988847396A8246884727
:1004E0000028F6D1BAF1FF3F0AD024F4D064002EE0
:1004F00011DDBAF12B0F08D0BAF12D0F0BD102E0AC
:10050000404611B08DE744F48064B9696D1C0E98C3
:1005100088478246761E6946600501D52D2000E099
:100520002B208DF8000001F1010B0DF1200809E0EE
:10053000B9696D1C0E98884782460F9844F4007480
:10054000761E0560002E02DDBAF1300FF0D00B9957
:100550008A453ED144F0800406E00F99681CA9F159
:10056000010944F400740860B9696D1C761E0E9888
:10057000884782463028F0D02BE00B998A4505D178
:10058000200603D444F08004761E18E0504602F0A2
:1005900005F808B30DF11302761EAAF1300044F4F9
:1005A0000074934506D20BF8010B200607D5A9F17C
:1005B000010003E0200602D409F101008146A005F4
:1005C00002D50F99681C0860B9696D1C0E988847A0
:1005D0008246002ED1DC53E0002E51DDBAF1650FCA
:1005E00002D0BAF1450F4BD1A00549D5B9696D1CB0
:1005F00024F44074761E0E9888478246002E0CDD47
:100600002B2804D0BAF12D0F07D144F48074B969B6
:100610006D1C0E9888478246761EE00501D52D2177
:1006200000E02B2108F8011BCDF82C8021E00DF112
:100630002901761E44F4007488450CD2AAF13000DA
:1006400010F0FF0088F8000002D10B99884509D905
:1006500008F1010806E0E00501D5244801E042F276
:100660000F708146B9696D1C0E98884782460F98B5
:100670000560002E04DD504601F090FF0028D6D121
:10068000F9690E988847FF208BF8000088F8000071
:100690000020069007904B466A4608A906A8FFF777
:1006A00077FEA00502D46FF001002AE714F0240FB2
:1006B0000AD0E00714D1DDE906123868031D3B605B
:1006C0000068C0E900120BE0DDE9060100F042FA23
:1006D0000146E00704D13868021D3A6000680160F5
:1006E00028460EE7000014400000F03FF1D8FFFF5D
:1006F00030B50B46014600202022012409E021FAF2
:1007000002F59D4205D303FA02F5491B04FA02F5EE
:100710002844151EA2F10102F1DC30BD2DE9F05F85
:100720000546002092469B46884606468146402460
:100730001BE0284641464746224600F04FFA534602
:100740005A46C01A914110D311461846224600F06D
:1007500016F82D1A67EB01084F46224601200021AA
:1007600000F00DF817EB00094E41201EA4F1010422
:10077000DFDC484631462A464346BDE8F09F202A42
:1007800004DB203A00FA02F1002070479140C2F1E8
:10079000200320FA03F31943904070473A2800D20F
:1007A000303820F02002412A01D3A2F137008842DC
:1007B00001D34FF0FF307047024B9361024BD3617E
:1007C00000F034BA1D130008CD0B00082DE9FE4FD0
:1007D000804681EA0300C00F0C46009021F00041E2
:1007E00023F00045B8EB0200A94105D2404621465E
:1007F00090461C460B46024623F00040104347D06B
:10080000270DC7F30A00C3F30A510290401A019062
:1008100040286BDAC3F3130040F4801B0098924623
:1008200020B10023D2EB030A63EB0B0B019859466E
:10083000C0F140025046FFF7A2FF06460D46504663
:100840005946019A00F0DAF910EB080061410024E2
:1008500087EA115284EAE7731A4340D0009A62B3E0
:10086000019A012A4FEA075215DC001B61EB0201D5
:100870004FF0004202EA0752CDE90042001C41F568
:10088000801132462B4600F025FA03B0BDE8F08F08
:1008900040462146F9E7001B61EB0201001C41F5CF
:1008A000801300185B412018A2F5001747EB0301E5
:1008B00040EAD570B6196D4111E06D084FEA360671
:1008C00045EAC0754FEA0752001B61EB0201001CAC
:1008D00041F5801149084FEA300000195141324674
:1008E0002B4603B0BDE8F04F00F0E5B900980122B7
:1008F00040000023D0EB020263EBE0730098214636
:100900004FEAE074B8EB000061EB0401E9E783F023
:1009100000435BE781F0004158E72DE9FE4F81EA93
:10092000030404F0004421F0004100944FF0000B58
:1009300023F0004350EA01045ED052EA03045BD086
:10094000C3F30A54C1F30A552C44A4F2F3340194BE
:10095000A0FB0254C1F3130141F48011C3F313034C
:1009600043F4801301FB024400FB034E840A970A00
:1009700044EA815447EA8357A4FB076802958D0A2D
:1009800005FB07854FEA932C04FB0C542705029DB9
:100990004FEA065847EA1637B5EB08056EEB070C29
:1009A000870E920E47EA811742EA8312A7FB0201E3
:1009B000B6EB0B0164EB00042B0D43EA0C335E181D
:1009C00044EB1C50DA465146E7FB0201C5F3130421
:1009D0004FEA0B3343EA14534FEA0432019C43EAD3
:1009E0000603A4F10C040294009CCDE900B400F0CD
:1009F00071F903B0BDE8F08F00200146F9E72DE959
:100A0000F04D81EA030404F0004B21F00045144648
:100A10004FF0000A23F0004150EA050220D054EACA
:100A200001021DD0C5F30A570246C5F31303C1F3F3
:100A30001300C1F30A5640F4801543F48013A7EB6A
:100A40000608101BD64608F2FD3873EB050002D3EA
:100A500008F1010801E092185B41B8F1000F03DAD8
:100A600000200146BDE8F08D00204FF480110646BD
:100A700084460EE0171B73EB050705D3121B63EBCF
:100A8000050306434CEA010C49084FEA300092186E
:100A90005B4150EA0107EDD152EA030012D082EA2D
:100AA000040083EA0501084305D0101BAB4106D2C0
:100AB0000122002306E000224FF0004302E06FF025
:100AC000010253101AEB06004CEB085110EB0A0020
:100AD00041EB0B01BDE8F04D00F0EDB80EB540F272
:100AE000334202920022CDE90022134600F0F2F8D0
:100AF00003B000BDC1F30A52C1F3130140F2FF334A
:100B000041F480119A4202DA00200146704740F217
:100B100033439A42A2F2334202DC524200F05EB802
:100B2000FFF72DBE30B5041E71F1000404DB4FF059
:100B30000044404264EB0101141E73F1000405DB24
:100B40001C464FF00043524263EB0403994208BF36
:100B5000904230BD01F0004330B421F0004150EA32
:100B6000010206D00A0DA2F56072C1F31301002A3A
:100B700002DC30BC00207047440F44EAC104C100CD
:100B8000E01830BC00EBC25000F05EB8064C074DD8
:100B900006E0E06840F0010394E80700984710344D
:100BA000AC42F6D3FFF7F4FA305E0008705E00083E
:100BB000094910B508784C1C18B1401E0870205C1B
:100BC00010BD00210720ABBE207010BD024908787F
:100BD000421C0A707047000008000010202A04DB45
:100BE000203A21FA02F00021704721FA02F3D040A6
:100BF000C2F120029140084319467047202A06DBC3
:100C0000CB17203A41FA02F043EAE07306E041FADA
:100C100002F3D040C2F120029140084319467047C8
:100C2000026811441378016018467047D160044986
:100C300051610449116200211161114600F09EB812
:100C4000210C0008710D00080029A8BF7047401C46
:100C5000490008BF20F00100704710B4B0FA80FCD2
:100C600000FA0CF050EA010404BF10BC704749B10F
:100C7000CCF1200421FA04F411FA0CF118BF01217F
:100C800021430843A3EB0C01CB1D4FEA00614FEA5F
:100C9000102042BF002010BC704700EBC35010442E
:100CA0000029A4BF10BC7047401C490008BF20F0B9
:100CB000010010BC704710B5141E73F1000408DA6F
:100CC000401C41F1000192185B411A4301D120F010
:100CD000010010BD2DE9F04D92469B4611B1B1FACD
:100CE00081F202E0B0FA80F220329046FFF747FD31
:100CF00004460F4640EA0A0041EA0B0153465A46B1
:100D0000084313D0114653EA010019D0C8F140023C
:100D10005046FFF763FF05460E4650465946424689
:100D2000FFF72DFD084305D0012004E02046394699
:100D3000BDE8F08D0020054346EAE0762C433743BA
:100D40000A986305E40AA0EB08000022FD0A44EAC1
:100D500047540A3002D500200146E9E70105101981
:100D60006941DDE9084500196941BDE8F04DA2E798
:100D7000C0B24FF4F05100F097B900002DE9F34FE5
:100D80008BB04FF0000801F10C000C464FF0010B46
:100D900046460DF1080A01906269012101989047C9
:100DA000051E2DD0252D2CD0216A8847C0B162693F
:100DB000012101989047216A88470028F7D1411EF8
:100DC00062690198904700E0761CA1690B988847FA
:100DD000216A88470028F7D1E1690B988847DBE74B
:100DE000A1690B9888470746A84201D1761CD3E732
:100DF000E1690B9888477F1C02D1B8F1000F6FD0D2
:100E000046E1002762693D463946019890472A2805
:100E100004D162690121019890470125DFF884928D
:100E20006269012101989047A0F130010A290AD294
:100E30004F45E5DC07EB870100EB4107303FDFD48E
:100E400045F01005ECE7E90601D46FF000476C2887
:100E50000AD04C2814D0682815D06A280DD07428E0
:100E60001CD07A281AD01DE06269012101989047B0
:100E70006C2802D045F0040514E045F002050DE0B1
:100E800045F020050AE06269012101989047682831
:100E900002D045F0080505E045F4006562690121CE
:100EA00001989047C4E9015765283DD019DC5828BE
:100EB0007AD00CDC452837D004DC252826D0412800
:100EC00031D131E046282FD047282CD12CE05B28A7
:100ED00077D0612828D063287CD0642823D15AE0B9
:100EE000D0E06F2848D008DC66281DD067281BD0CA
:100EF000692821D06E2816D127E0702845D07328A4
:100F000068D0752847D078280DD14DE0A1690B989D
:100F10008847054625283FF469AFE1690B98884763
:100F20006D1C3FF46AAFB3E023466A466FF00100E0
:100F30000B99FFF7C1FA9EE045F040006060A807FA
:100F400023464FF0000236D43EE0E8077FF447AF77
:100F50002068011D21600068290501D506701BE786
:100F6000290701D5068017E7A90703D5F117C0E9BE
:100F7000006111E706600FE745F040006060A807D8
:100F800023464FF0080216D41EE040F60E0125EA73
:100F90000100606016E045F040006060A80723464D
:100FA0004FF00A0207D40FE045F040006060A80748
:100FB00008D5234610226FF001000B99AFF3008093
:100FC00059E007E0234610226FF001000B99FFF76C
:100FD00039F950E04FF000094F464B46632802D0E4
:100FE0005B2806D040E0E80601D40120A06001277C
:100FF0003AE062690121019890475E2805D14FF0DF
:1010000001096269494601989047216939B900216F
:101010000A46534643F82120491C0829FADBB0B39D
:10102000216969B9C11700EBD16253110AEB830141
:1010300022F01F02821A01200B68904003430B60CC
:1010400062690121019890475D28E8D1B9F1000F4C
:1010500009D00020514651F82020D24341F82020E9
:10106000401C0828F7DB02AB224600976FF0010016
:101070000B99AFF3008000280CDA401C08D1BBF1BB
:10108000000F05D04FF0FF300DB0BDE8F08FFFE747
:101090004046F9E7E90701D108F1010806444FF09D
:1010A000000B79E6CCCCCC0C7F2801D9002208E0DB
:1010B000064A02EB5002C007127800D1120902F072
:1010C0000F020120904008407047000034420008A1
:1010D0000EB540F2334102910021CDE900110A46DC
:1010E0000B46FFF7F7FD03B000BD70B58C1810F884
:1010F000015B15F0070301D110F8013B2A1106D15D
:1011000010F8012B03E010F8016B01F8016B5B1E76
:10111000F9D12B0705D40023521E0DD401F8013B51
:10112000FAE710F8013BCB1A921C03E013F8015BBD
:1011300001F8015B521EF9D5A142D8D3002070BD41
:10114000FEE77047EFF3108072B6FEE7D149013039
:101150004A694B699B1A8342FBD37047B0B51B4960
:101160004FF47A734A68B2FBF3F20023013AB3EB0F
:10117000126F1ED1C64CF02562600E4AD575A36071
:1011800007230F28236014D813684FF0FF35C3F3EB
:101190000223DC1E83F0070338BF0024042B28BF82
:1011A000042305FA03F320EA0303A3401B01D375CC
:1011B0000860B0BD0CED00E00448054905A2406898
:1011C0000968C1F30221515CC84070470C0000104F
:1011D00004100240000000000102030410B50C4995
:1011E0000C480A6802F00C03082B08D1C2F38343B1
:1011F00009A4896AD203E35C02D40F48584310BDA6
:1012000001F00F0108A2515CB0FBF1F0584310BD92
:101210000410024000127A000203040506070809C0
:101220000A0B0C0D0E0F101001020304050607082F
:10123000090A0B0C0D0E0F1000093D00FEE7FEE73A
:10124000FEE722466FF07E43404600F017B84FF6A7
:10125000FF7300F013B87047704700008D48416974
:1012600001314161704700BF0248016841F47001DB
:101270000160704788ED00E07047000070B50468B9
:10128000844DE6690E408E4211D06E69B61A9E42B8
:101290000FD826687607F4D5E66936070BD4E669D9
:1012A0003605EED5032120224FF4006306E000212D
:1012B00030E003212EE00121082308222362036885
:1012C00053E8003F046823F4907344E80035002D90
:1012D000F5D1036853E8023F046823F0010344E8B2
:1012E0000235002DF5D1036E012B09D1036853E8B7
:1012F000003F046823F0100344E80035002DF5D1C9
:101300002023C0F8803000230366836680F878309D
:10131000C0F88420084670BDFEE700002DE9FC41BE
:101320004D4C0025D4F88000202851D12220C4F84B
:1013300084505849C4F8800001202566A4F858005C
:10134000D1F81480A4F85A00A06898B1B0F1805F79
:1013500016D00DF10707B0F5805F18D12069FF2581
:1013600000281CBF384600273E4608BF40F2FF1544
:1013700007460DE020697F25002808BFFF2504E00F
:1013800020693F25002808BF7F250DF107070026AB
:10139000A4F85C50B4F85A00A8B120462021424677
:1013A000FFF755FF78B92068808C284017B107F8FF
:1013B000010B02E026F8020B0027B4F85A000138AE
:1013C000A4F85A00E6E72020C4F880009DF80750F2
:1013D0002846BDE8FC8100BFF8B51F4C0090E06FC7
:1013E000202836D1002621202A49C4F88460E067ED
:1013F0000120A4F850004D69A4F85200A0682169AA
:1014000080F4805050EA010768460CBF0646074644
:10141000B4F85200B0B1204680212A46FFF717FFEA
:10142000A8B9206817B117F8011B04E036F8021BB1
:1014300000276FF35F210185B4F852000138A4F84A
:101440005200E5E7044840212A46FFF700FF20202C
:10145000E0670098F8BD00BF6C06001018B50C4A94
:101460000C4B106858695168946801310C1B00944A
:101470001468E40303D5586992688A1A0092009BA5
:101480004FF47A725343B3FBF1F100FB021018BD25
:1014900010E000E04005002098B00020E54CE64A4E
:1014A0004FF6FF010590206840F0100020601068A2
:1014B0000840E249084310600020FFF74FFEE04F6C
:1014C000786940F001007861786900F001000690C9
:1014D0000698B86940F08050B861B86900F0805053
:1014E00006900698386810F00C0F07D0386800F0A6
:1014F0000C00082844D13868C00341D457F8040CC4
:1015000057F8040C102161F3C70047F8040C386841
:1015100000F00C00082842D1386800F47410B0F5CF
:10152000601F5CD1206810F0060F0AD120680221EC
:1015300061F302002060206800F00700022840F0FC
:10154000D780386820F0F000386057F8040C80012C
:1015500040F1CE8038680221DFF81C9861F3010069
:1015600041F288313860D9F814003A6802F00C0270
:10157000082A38D0D9F81420121A8A42F5D9B7E0CF
:10158000B04801210160DFF8F007416957F8042CE9
:101590009207B5D44269521A022AF7D91FE0A94925
:1015A00000200866DFF8D007426957F8043C9B0129
:1015B00004D543699B1A022BF7D910E03A6822F44C
:1015C000741202F560123A6001220A66416957F806
:1015D000042C9201A6D44269521A022AF7D9EFF3D9
:1015E000108072B6FEE7206800F00700032809D3D8
:1015F0002068022161F302002060206800F00700EB
:10160000022875D13868042161F30A2038603868EF
:1016100020F460503860FFF7E1FD39680FF25C722A
:10162000C1F30311515CC840DFF8601748600868D7
:10163000FFF794FD3869002204F5805140F48000E2
:101640003861386900F4800006900698386940F4E3
:10165000003038610120C9E90D22A9F82420C9F819
:101660002010C9F84000396901F40031069106994B
:1016700099F83D1051B989F83C20396941F0400191
:101680003961396901F040010691069902216E4BDA
:10169000DFF8FCA66D4C4FF4807E89F83D106C4954
:1016A000CB600B6823F018030B604FF0FF338B60A7
:1016B0000B6823F060030B600B6823F080030B6062
:1016C00089F83D000C204FF4E131CAE90822CAE94B
:1016D0000222CAE906E2CAE90041CAE90420DAF8AE
:1016E0007C1049B14FF0000C00240021002567E078
:1016F000EFF3108072B6FEE70022564B4FF0904990
:101700004FF0000C07258AF878204FF0000AB869DE
:1017100040F40030B861B86900F4003006900698D3
:10172000386940F400303861386900F400300690C0
:101730000698BAF1100F37D0012000FA0AFE48F2DD
:1017400006001EEA000F29D0032000FA02F84248E2
:10175000D0F804B048EA0B014160016821EA0E01AB
:101760000160816821EA080181600CF01C010F20F2
:1017700000FA01F66FF0030005FA01F100EA5A04DD
:10178000E058B04302260843E05006FA02F0D9F8C8
:10179000001021EA08010843C9F8000002320CF1E8
:1017A000040C0AF1010AC4E7DFF8E4A5DFF8C895E4
:1017B000DAE9025CDAE90410DAE906E4DAF8202072
:1017C0002426224B2943254DCAF87C6008431E6815
:1017D00026F001061E60196829400843204318605E
:1017E000586820F4405040EA0C00586042EA0E006D
:1017F000996821F4306108439860FFF7DDFCB4F587
:10180000004F2DD10C4DE8B3DAF804104A0802EB72
:1018100040004FF6EF72B0FBF1F0A0F110019142E1
:1018200000F29F824FF6F0710140C0F3420008447D
:1018300025E000BF002002400CED00E00003FA05A7
:101840000410024000004242B71DC10400440040A1
:10185000083002402000004804000048F369FFEF10
:10186000D74D78B1DAF804104FF6EF7200EB510063
:10187000B0FBF1F0A0F11001914200F27282DAF8AF
:101880000010C860DAF824100020CAE91A00002904
:1018900061D0CA0708D0DAF80020DAF82830546896
:1018A00024F40034234353608A0708D5DAF8002073
:1018B000DAF82C30546824F48034234353604A0708
:1018C00008D5DAF80020DAF83030546824F480249F
:1018D000234353600A0708D5DAF80020DAF83430D9
:1018E000546824F4004423435360CA0608D5DAF848
:1018F0000020DAF83830946824F48054234393604D
:101900008A0608D5DAF80020DAF83C30946824F426
:101910000054234393604A0612D5DAF80020DAF81F
:101920004030546824F480141C43B3F5801F546085
:1019300006D1DAF84430546824F4C00423435360D9
:10194000090608D5DAF80010DAF848204B6823F4C5
:1019500000231A434A60DAF800104A6822F49042E1
:101960004A608A6822F02A028A600A6842F001020C
:101970000A60CAF88400D9F814400868000709D53D
:10198000DFF80C844FF40011FFF75BFC00287AD1DC
:10199000D8F800100868400707D5DFF8F4834FF443
:1019A0008001FFF74EFC00287BD120204FF08052B1
:1019B00041F28833DFF8E4B3CAF87C00CAF880004B
:1019C0000020CAF860008AF87800CAF86400B96993
:1019D00041F00101B961B96901F00101069106996F
:1019E0002968E24981F81C030A604FF080421168BF
:1019F00021F45C711160E7498B6209234B620B692A
:101A000043F001030B61136843F080031360E24B62
:101A10004A681A4001234A600A6822F070020A608C
:101A20004A6822F080024A6005215A46CDE900103A
:101A300009F10800002101F053FE0546000640F0C0
:101A40000581D748D0E90001CDE91601D548D0E994
:101A50000001CDE9140106AC14A916AA204601F034
:101A6000C5FD002800F0ED8004F10C06DB4C0027DA
:101A7000BDF82600874234D230463946224601F06E
:101A8000FFFB0137F4E7D8F8000050E8001F40469C
:101A900050F87C2B21F0800142E80013002BF2D19A
:101AA00018E0D8F8000050E8000FD8F8001020F433
:101AB000907041E80002002AF3D1D8F8000050E805
:101AC000021F404650F8802B21F0010142E802132A
:101AD000002BF2D100218AF8781020210160FFF755
:101AE00031FBD9F808A006A9504601F08BFE00286A
:101AF00000F0A780DFF88092074606AA0121484639
:101B000001F0AEFD804600285CD0A749D9F800005E
:101B10000A680B690C6D0E6CC1E9120042F080423C
:101B200043F0804344F0804446F080460A6000F56C
:101B300093520B61954B0C6500F590540E64C1E90E
:101B4000022200F5B752C1E91644C1E90622996B99
:101B50009A6C41F08041996341F210710144C3E9EC
:101B6000101141F270710144C3E9141142F0804137
:101B70008E4A996441F27871136C0144C2E91211E2
:101B800043F08041136D116441F6F8010144C2E94C
:101B9000161143F080411369116541F604110144A7
:101BA000C2E9061143F08041116141F64431084415
:101BB000116AC2E90A0041F08040106207E000BFEC
:101BC0000CED00E038463021122201F0EEFE09F162
:101BD000040006AA012101F02DFD064618B3D9F82C
:101BE00004006A4C7149704A00F11403C1E90E0007
:101BF000C2E91A00C2E90A00C4E91800C4E90800F1
:101C0000C4E9043300F56773C1E9023300F1C00190
:101C1000C2E90E1100F16001C4E91C1100F13001AC
:101C2000C4E90C1104E038463021132201F0BDFE56
:101C3000DFF84491504601F06BFE304018EA000F87
:101C400004D1D9F8080001F0CFFD0546280616D1C9
:101C5000D9F8080010B9514855490160002101F038
:101C600013FDC9F80C00D9F8080018B95048CBF892
:101C700000005846002101F09EFEC9F810009FEDBB
:101C80003C0B09F1180B41F2883A4DA651EC100BB0
:101C9000CDE9031006AF47A000F0D2F8DFF81C91A1
:101CA0004FF00008B8F1010F0FD040F2E2444D466A
:101CB0003CB130463946FEF7B5FA0698013C01C5FD
:101CC000F6E7D14408F10108ECE70120FFF73EFAFE
:101CD000FFF7C4FB284C80463848E1684860226919
:101CE000C2F804B0A06801F036FE012802D0A06856
:101CF00001F07AFDFFF7B2FB814632A000F0A0F8B8
:101D00000120FFF723FA30A005A9FEF78BFA05980A
:101D1000C828C0D14846FFF7DBF9044640460D46C7
:101D2000FFF7D6F902460B4620462946FEF7EFFD9F
:101D3000DDE90332FEF763FE02460F4823A390ED70
:101D4000060A90ED071A23A0B4EE410AF1EE10FA4C
:101D5000C8BF18460B4600F073F81E20FFF7F6F9CF
:101D600099E70020CAE91A00FFF7ECF900E100E06A
:101D70000000000080842E4140050020000000008B
:101D80000000000001020304060708090C0000100F
:101D90006C06001004000040F8BFFEFF4005001074
:101DA00078420008804200088400001008000020EB
:101DB0000001C0A1626567696E0000009C190020E7
:101DC000256600006F6B000025640000302C252E76
:101DD00036660000312C252E3666000000060020F5
:101DE00010B500F032FA11490968114BC1F3022114
:101DF000104A012404290BD00F490C600C68002CF8
:101E0000FCD10D4908390B60096891420AD0FEE700
:101E10000A498C608C68002CFCD10B6009689142E7
:101E200000D0FEE700F084FA10BD0000002004E0BE
:101E3000C2A507F4CDB5E8B5084C02580030024001
:101E40000FB4054B10B503A9044A029800F0C2FD77
:101E500010BC5DF814FB0000D9130008000000104E
:101E60009FED3C0A63E000BF92ED003A91ED004A1D
:101E7000D2ED012AD1ED013A04EE030A92ED022AD5
:101E800091ED021AD2ED030AD1ED031A91ED044A45
:101E900003EEA20AD2ED043A92ED053AD1ED052AFD
:101EA00001EE020A92ED062A92ED071A01EEA00A4F
:101EB000D1ED061AD1ED070A04EE230AD2ED083A55
:101EC00091ED084A02EE830AD2ED092A91ED093A12
:101ED00001EE820A92ED0A2AD1ED0A1A00EE810A79
:101EE00092ED0B1AD1ED0B0A04EE230A91ED0C4A88
:101EF000D1ED0D3A03EE220A92ED0C3AD2ED0D2A05
:101F000001EE820A92ED0E2AD1ED0F1A00EE810A3F
:101F100091ED0E1AD2ED0F0A40314032103B04EE23
:101F2000030A03EEA20A01EE020A01EEA00A102B38
:101F30009AD206E0F1EC010A5B1EB2EC011A00EE47
:101F4000810A002BF6D1D0ED000A30EE800A80ED38
:101F5000000A70470000000030B528B1144C031F80
:101F6000002021680A4605E0084630BD9A4203D8A1
:101F700010465268002AF9D1002800D041680BD0E1
:101F80000468A3EB0005A54204D11B681C4403466A
:101F9000046002E0436000E023603AB11C68D51A97
:101FA000A54203D115682C441C6052685A6030BDAC
:101FB000040000202DE9F04782460F4C10480D4EDA
:101FC0000E4F001B4FF0000820F007054FF00109ED
:101FD00000221146504602F087F8002802D13068EE
:101FE00010B10020BDE8F0873C60C4E90058C6F895
:101FF0000090EDE7040000102C2D002004000020CC
:10200000282F002002E008C8121F08C1002AFAD1B8
:1020100070477047002001E001C1121F002AFBD168
:1020200070470000F0B5059D25F0010403EB840620
:102030009FED460AEF085AE051F8044BD3ED002A11
:1020400004F0FF0C4FEA1C1E02EB8E0E0CF00F0C7E
:102050009EED002A02EB8C0C02EE220ADCED001A47
:1020600093ED012AC4F3072C4FEA1C1E02EB8E0EDF
:1020700001EE820A9EED001AD3ED021A0CF00F0C4D
:1020800002EB8C0CD3ED042A01EE210ADCED000AF0
:1020900093ED031AC4F3074C4FEA1C1E02EB8E0E9D
:1020A00000EE810A9EED002A0CF00F0C02EB8C0C66
:1020B000240EDCED001A02EE220A93ED052A4FEA07
:1020C000141C02EB8C0C04F00F049CED001A01EEC2
:1020D000820AD3ED061A02EB8404D4ED000A01EE65
:1020E000210A93ED071A20337F1E00EE810A002F8C
:1020F000A2D115E011F8014B93ED001A270902EB6C
:10210000870704F00F04D7ED000A02EB840400EE09
:10211000810AD4ED000A93ED011A083300EE810A1A
:10212000B342E7D3EC0709D0097893ED001A090907
:1021300002EB8101D1ED000A00EE810AD0ED000A28
:1021400030EE800A80ED000AF0BD000000000000C3
:10215000F0B59FED380A059DEE0851E051F8044BAB
:10216000D3ED002AE7B202EB8707D7ED001AC4F3DC
:10217000072702EB870701EEA20A97ED002AD3EDAD
:10218000011AC4F3074702EB8707240E02EE210A67
:1021900097ED001AD3ED021A02EB8404D3ED042A62
:1021A000D4ED000A01EE210A93ED031A51F8044B15
:1021B000E7B202EB870700EE810A97ED002AC4F32D
:1021C000072702EB8707D7ED001A02EE220A93EDEC
:1021D000052AC4F3074702EB8707240E97ED001A80
:1021E00001EE820AD3ED061A02EB8404D4ED000A54
:1021F00001EE210A93ED071A2033761E00EE810AC4
:10220000002EABD105F007040BE000BF11F8015B15
:10221000641E02EB8505B3EC011AD5ED000A00EE51
:10222000810A002CF2D1D0ED000A30EE800A80ED58
:10223000000AF0BD0000000010B54169044688475F
:102240002069A04200D1002010BD0120704700008D
:102250002DE9F04F002699B00F4605463446B046AA
:102260004CE0A868C4EBC4038946426802EB8302D1
:102270000E92806810AA00EBC40A2C480D9251F807
:10228000082F406A120A62F31F200190D1F804B0AF
:102290001C2105A8FDF7ADFFD9F81800006800F073
:1022A0005BFF0590D9F81800806806905FEA0A0085
:1022B00009D0C0F80080D9F80010416029B14988E0
:1022C00019B1012102E0404603E00021016001B99B
:1022D00000200790D9F818001C2205A94068099031
:1022E0000198CDE90A0B0D98FDF76AFF1C2210A991
:1022F0000E98FDF765FF761CB6B2641C0DB12888F8
:1023000000E00020A04205D9686818B150F82410F8
:102310000029A6D11EB1A8684068386001E0C7F85E
:10232000008019B03046BDE8F08F0000C8410008B9
:1023300070470000D3ED021A93ED000A93ED011AE5
:10234000F5EEC01A01EB8203F1EE10FA00EB820009
:102350002AD2B5EEC01AF1EE10FA11D0001F1B1FE1
:102360008B4220D3D3ED000AF4EEC00AF1EE10FA4E
:1023700003D870EEC00A60EE810AC0ED000AEDE7F6
:102380009FED161A0BE000BFD3ED000AF4EEC00A71
:10239000F1EE10FA01D8F0EE410AC0ED000A001F7C
:1023A0001B1F8B42F0D27047001F1B1F8B42FAD3BA
:1023B000D3ED000AF4EEE10AF1EE10FA09D8F4EEDA
:1023C000C00AF1EE10FA06D870EEC00A60EE810A7B
:1023D00001E0F0EE610AC0ED000AE5E70000000050
:1023E000D3ED000A9FED0B1A01EB820300EB820094
:1023F000001F1B1F8B420BD393ED000AB4EEE00AC3
:10240000F1EE10FA01D8B0EE410A80ED000AEFE7D4
:1024100070470000000000002DE9FF5F82B000213E
:10242000DDE90430020DDDF840B0034318D044F676
:102430001050A2F2FF3242431514119801281FD008
:10244000A5EB0B00401C5FEA000A4FF000064E4F60
:10245000DFF83891B046504615D5CAF1000413E0B4
:10246000119801244AA3012801D16FEA0B010298B7
:10247000119AC0E90031C0E9024206B0BDE8F09F00
:10248000CBF10000DFE704460021404A491842EB47
:102490000450CDE9001012E0E00707D032463B4679
:1024A00040464946FEF739FA8046894632463B4661
:1024B00010461946FEF731FA06460F466410002C06
:1024C000EAD1DDE90401DDE90023BAF1000F06DA03
:1024D000FEF723FA42464B46FEF71FFA05E0FEF7E9
:1024E0008EFA42464B46FEF78AFA04460E46002212
:1024F000284BFEF717FB03D84FF0FF30014607E0EB
:102500000022254B20463146FEF760F9FEF7F2FA2D
:10251000102409E0002C0ADB0A220023FEF7FEF853
:10252000039B30321A55641E50EA0102F2D1641C3A
:10253000039AC4F111031444119A012A03D0012211
:1025400008430DD10AE0084304D000204FF0110BDE
:10255000119072E7A3EB0B056D1E0DE05B4504DDEA
:102560004FF0000205F1010504E003DA4FF000022C
:10257000A5F10105002AECD002981199C0E90231B9
:10258000C0E9004579E70000000014400000F03F7A
:10259000300000000000F0430000E03F30380A281F
:1025A00001D20120704700207047000070B5054639
:1025B0000C4648886988884202D9AAB1002070BDBB
:1025C00092B100260CE000BF6168C6EBC6006A68E5
:1025D00001EB800102EB80001C22FDF7F1FD761C6F
:1025E0006088B042F0D801E0606868606088688008
:1025F00020882880012070BD30B500B3F9B1F2B158
:102600005268E2B10F4C1368A34203D00260012963
:1026100013D014E00023121D07E000BF52F823502E
:10262000A54204D040F823505B1C8B42F6D38B426A
:1026300005D152F82300A04201D1012030BD002075
:1026400030BD0000DECAFAA170B50D460600144682
:102650001AD0CCB1104600F025FE00B16088A84227
:1026600012D10023042109E0C3EBC302606801EB2F
:102670008202805820B146F823005B1CAB42F3D3A2
:10268000AB4201D1012070BD002070BD03498842DA
:1026900001D101207047002070470000DECAFAA176
:1026A0002DE9FE4F92468946040003D0A08D20B14B
:1026B000256B03E00020BDE8FE8F00250020E082AE
:1026C000A082207BC043800702D030221121DCE0B1
:1026D000B9F1000F61D0D5B32888C0B3D9F818007C
:1026E0000026D0F8008056E0A868006800EB0610CD
:1026F000019052D058B3C6EBC600029009EB80009F
:102700000121009000F0D8FDDBF8183059688842AC
:102710001AD80098DBF80C208069D768D0F80CC074
:10272000674511D19768D0F808C067450CD1526849
:102730004068824208D1186800F0FEFC07465846FF
:1027400001F0BEFC874203D2182212219DE024E052
:10275000DBF81800006800F0FFFC029920F07E42D0
:1027600059F8210020F07E40824201D01922ECE786
:102770000098406888B100988069006878B1414647
:10278000404500D208468046DDE900105A4600F078
:102790008FF8761C2DB1288804E01722D5E7212276
:1027A000D3E70020B04206D9686820B150F826B0BF
:1027B000BBF1000F98D1BAF1000F74D0A08D0128A1
:1027C00006D9256B0C3503D0288808B1002658E0BF
:1027D000182259E0A868006800EB061B3BD0BBF14B
:1027E000000F38D0C6EBC60001900AEB8000012133
:1027F000009000F061FDD9F8183059688842E7D898
:102800000098D9F80C208069D768D0F80CC06745CB
:10281000DED19768D0F808C06745D9D152684068C2
:102820008242D5D1186800F087FC0746484601F07F
:1028300047FC8742CCD3D9F81800006800F08CFC24
:1028400020F07E4201985AF8200020F07E4082421B
:1028500003D0192218E0172216E0009840680028DB
:10286000F9D000988069006868B14146404500D2BF
:10287000084680464A465846009900F019F8761CEA
:102880003DB1288806E021221321204601F08DF871
:1028900010E70020B04206D9686820B150F82690B1
:1028A000B9F1000F96D1A4F814804FF0010002E7AF
:1028B00070B504460E461546104601F001FC01466F
:1028C000A060B06900684843E06071686160726848
:1028D00010442060A8690268920007D4D0E902235E
:1028E000D21A11448160A9696068C86070BD70B572
:1028F0000646002521E0B068006800EB05148869F1
:102900000268920005D58168A268606801F014FC35
:1029100008E0D0E90223D21A63681A448260896908
:102920006068C860D4E90101084460602168884299
:1029300001D3E068081A6D1C60600EB1308800E0B9
:102940000020A84206D97068002803D050F825104E
:102950000029D0D170BD2DE9F0410646002529E0BF
:10296000B1688369096801EB051419688900D4E925
:1029700001120DD5986801F0DFFBD4E9010108448C
:1029800060602168884201D3E068081A606010E046
:102990000A44626021688A4201D3E2688A1A62604E
:1029A0008169D1E90237DB1B1A448A60806961685A
:1029B000C1606D1C0EB1308800E00020A84206D92D
:1029C0007068002803D050F825000028C8D1BDE861
:1029D000F08100002DE9FF4F95B09B4689460646E1
:1029E00000250FE2252877D100242746F84A012147
:1029F000059400E0044316F8013F203B01FA03F080
:102A00001042F7D130782A2811D06FF02F03307898
:102A1000A0F13002092A16D8059A44F0020402EB0C
:102A2000820203EB42021044761C0590EFE759F84E
:102A3000042B0592002A03DA504244F40054059016
:102A400044F00204761C30782E2816D116F8010FB7
:102A500044F004042A280DD06FF02F023078A0F142
:102A60003003092B09D807EB870302EB4303C71890
:102A7000761CF3E759F8047B761C30786C280FD06D
:102A800006DC4C2817D068280DD06A2814D104E041
:102A9000742810D07A280FD10DE044F400140AE015
:102AA00044F4801401E044F440147278824202D16C
:102AB00004F58014761C761C307866280BD013DC65
:102AC000582877D009DC002875D04528F6D046284C
:102AD000F4D047281AD19DE118E0632835D0642846
:102AE00079D0652812D195E1702873D008DC672869
:102AF000F1D069286FD06E280DD06F2806D1B5E0CF
:102B000073282CD0752875D0782874D05A46179918
:102B100090476D1C75E1C4F30250022809D00328C8
:102B20000DD0D9F8001004280DD00D6009F104096A
:102B300067E1D9F80010EA17C1E90052F6E7D9F8C1
:102B400000100D80F2E70D70F0E719F8041B8DF806
:102B5000001000208DF80100EA46012003E059F83A
:102B600004AB4FF0FF3061074FF0000102D40DE0DD
:102B700008F101018846B9420FDA8045F8DB1AF8FE
:102B800008100029F4D108E008F1010188468142CB
:102B9000FADB1AF808100029F6D105985B46A0EB7D
:102BA000080721463846179A00F094FA284400EBAB
:102BB000080507E04DE029E10DE01AF8010B5A463F
:102BC00017999047B8F10108F7D25B46214638467D
:102BD000179A13E142E00A220092C4F302524FF026
:102BE000000A022A08D059F804CB032A4FEAEC71F4
:102BF0000AD00DE029E02AE009F1070121F00702DF
:102C0000F2E802C1914609E00FFA8CFC4FEAEC7140
:102C1000042A03D14FFA8CFC4FEAEC71002907DA41
:102C20000A460021DCF1000C61EB02012D2202E0DA
:102C3000220504D52B228DF80420012203E0E207AF
:102C400001D02022F7E7904659E00A2102E0102245
:102C50000DE010214FF0000A00910BE010224FF020
:102C6000000A44F004040827009203E008224FF011
:102C7000000A0092C4F30252022A05D059F804CB8C
:102C80000021032A08D009E009F1070121F0070219
:102C9000F2E802C1914605E01FFA8CFC042A01D13A
:102CA0000CF0FF0C4FF00008220728D5702806D042
:102CB000009B83F0100353EA0A0305D00EE0402284
:102CC0008DF80420012208E05CEA010206D03022DF
:102CD0008DF804208DF8050002229046009B83F0B9
:102CE000080353EA0A030AD15CEA010201D1620730
:102CF00005D530228DF804204FF001087F1E58289A
:102D000004D034A003900EA802900DE036A0F9E79D
:102D100053466046009AFDF701FD84460398825CA5
:102D20000298401E029002705CEA0100F0D1029805
:102D300006A9081A00F1200A600702D524F480349D
:102D400000E00127574502DDA7EB0A0000E0002064
:102D500000EB0A01009005984144401A0590E003F9
:102D600006D45B462146179A059800F0B3F905444E
:102D7000002706E001A85A46C05D179990476D1CD0
:102D80007F1C4745F6DBE0030CD55B462146179ACE
:102D9000059800F09FF9054404E030205A46179941
:102DA00090476D1C0099481E00900029F5DC08E052
:102DB000029802995A460078491C02911799904747
:102DC0006D1CBAF10001AAF1010AF1DC65E1000015
:102DD00009280100303132333435363738396162F1
:102DE00063646566000000003031323334353637B5
:102DF00038394142434445460000000000F058F98C
:102E00000544761C307800287FF4ECAD19B02846D4
:102E1000BDE8F08F620700D4062709F1070222F00F
:102E2000070CFCE80223E14603F000485FEA080CC7
:102E300002D00FF2702C0DE05FEA045C02D50FF2B5
:102E4000682C07E05FEAC47C02D00FF2602C01E03E
:102E5000AFF2700C4FF0FF3823F00043CDF850C0B4
:102E600065280CD006DC452809D046281DD0472807
:102E70003DD13DE0662818D067287ED138E000219A
:102E8000112F01DB112000E0781CCDE9000106A91B
:102E90000EA8FFF7C1FADDE90F010E9A0391002198
:102EA000009207F1010A04914DE04FF000400097B5
:102EB000CDE9011006A90EA8FFF7AEFADDE90F0271
:102EC00003920E9B11990022DDF80CA0009304924E
:102ED00011B9791C00EB010AB7EB0A0004D4C0F168
:102EE000FF3007F1010A0490AAEB0700019044E0CB
:102EF000012F00DA01270021112F01DD112000E050
:102F00003846CDE9000106A90EA8FFF785FADDE9EC
:102F10000F010E9A0391002104910092BA462107F5
:102F20000CD40399514500DA8A46BAF1010F05DD48
:102F3000009AAAF10101515C302908D0B84202DAA6
:102F400010F1040F06DA0121CDE9011015E0AAF114
:102F50000101E9E7002805DC049901440491AAEB8A
:102F6000000102E0411C514500DD8A460499401AE7
:102F7000401C01904FF000400290200704D40198BB
:102F8000504501DBCDF8048000208DF84F000298F9
:102F90000DF14F07B0F1004F25D02B200E90029875
:102FA0004FF0020800280CDA404202902D200E90CB
:102FB00007E00A210298FDF79BFB3031029007F8E9
:102FC000011DB8F10001A8F10108F2DC0298002807
:102FD000EFD1791E0E980870307800F0200040F094
:102FE000450007F8020D12A8C01B00F1070814984D
:102FF000007800B1012000EB0A01019801EBE071BB
:1030000005984144401A401E0590E00306D45B46F3
:103010002146179A059800F05DF805441498007849
:1030200018B15A46179990476D1CE00324D55B46AA
:103030002146179A059800F04DF805441CE00498C5
:10304000002807DBDDE90301884203DD0098405CCE
:10305000179901E0179930205A469047049805F1D6
:103060000105401C04900198401E019004D12E20BF
:103070005A46179990476D1CBAF10001AAF1010A4E
:10308000DDDC05E017F8010B5A46179990476D1CD7
:10309000B8F10001A8F10108F4DC5B462146179A5B
:1030A0000598ABE62D0000002B000000200000007A
:1030B0002DE9F041044600251E461746880404D435
:1030C00005E039462020B0476D1C641EF9D528461E
:1030D000BDE8F0812DE9F041044600251E469046EA
:1030E000C80301D5302700E02027880404D505E077
:1030F00041463846B0476D1C641EF9D52846BDE8E8
:10310000F08179B1C0F3C6125143C91DC0F34153D8
:1031100021F00701D940C0F34340042804D0082817
:1031200007D104E00020704701EB021101E001EB40
:103130000221C91DC808704759B1C0F3C6125143D6
:10314000C91D21F00701C0F34150C140C91DC80885
:10315000704700207047000070B54021C0F3434223
:10316000022A1BD0394A20F07E439C1A0D014E01E1
:1031700093425FD029DC364AA3EB0204934259D034
:1031800019DC402B57D0403BB3F580234CD0802B2B
:1031900037D0AB424FD12E49C91F4CE0C0F3C051CC
:1031A000C905C0F3C61241EAC21100F07F02114303
:1031B00041F480213FE0A4F54074F93C1FD00F2C6E
:1031C00035D0B44237D1234935E0234BE21A9C4233
:1031D0001BD00BDC214AA2181DD0802A19D0AA428C
:1031E00011D0A2F58062073A25D117E00F2A18D036
:1031F000B2420CD01A4BDA421DD11A491BE01A49CF
:1032000019E01A4917E01A4915E01A4913E01A495A
:1032100011E01A490FE0194980390CE01449C91D21
:1032200009E014490F3106E01049803903E00E49E6
:103230000F3100E0114600F080420A4300F00051D7
:10324000114300F00060084370BD00004004060018
:10325000470404004010040000047E00000482FFC4
:1032600000F801FF4010820140080400C000040083
:10327000400484004008840040108400C0008400A2
:1032800070B514460D46064600F00CF840B1706863
:10329000C5EBC50110EB810002D04460012070BD78
:1032A000002070BD28B1416819B1408808B10120E3
:1032B000704700207047000010B502002AD0164B5E
:1032C0001068B3EBC01F03D0144BB3EBC01F01D188
:1032D000012000E0002008429069406802D01F30C1
:1032E00020F01F005369D9B2012900D000211C0A27
:1032F00007E0012907D0936953F821305843491C4E
:103300001AB1234602E00123F8E700238B42F0DCE8
:10331000002800DC002010BD0060004200600002B8
:1033200008B509A10968009148B101789DF800200D
:10333000914204D104226946FCF766FF08B10020DF
:1033400008BD012008BD0000038404842DE9FF4F5F
:103350002DED020B82B0DDE91609DDE913E800FB73
:1033600008F0584302EB800A0027DDF848B0189CAB
:10337000A7E06242002A00DC0022ABEB04054545D1
:1033800000D34546A0180599584301EB800102FB84
:1033900003F0AA1AABEB02055D430195A8EB020509
:1033A0005D4300950AEB800003FB02F5F0EE400A56
:1033B000002679E0002225F00F0C62E091ED004A32
:1033C000D0ED004A91ED013A90ED011A44EE840AE5
:1033D000D1ED023AD0ED022A91ED032AD0ED031A85
:1033E00091ED044A41EE030AD0ED044A90ED063A0D
:1033F00090ED071A42EEA30AD1ED053AD1ED062A67
:1034000041EE820A90ED052AD1ED071A44EE840AB6
:10341000D1ED084A90ED084A42EE230AD0ED093A70
:1034200091ED0A2A43EE220A91ED093AD0ED0A2ADB
:1034300041EE210A91ED0B1AD0ED0B1A44EE240A4D
:1034400091ED0C4AD0ED0C4A43EE830A91ED0D3A12
:10345000D0ED0D3A42EE820AD0ED0E2A91ED0F2A00
:1034600041EE810A91ED0E1AD0ED0F1A4030403135
:10347000103244EE840A43EE830A42EE810A41EEA2
:10348000820A94459ADC06E0B0EC011A521CF1EC79
:10349000011A41EE210AAA42F6DB019A761C01EBE1
:1034A0008201009A00EB82004E4583DB04987F1C6A
:1034B000C0ED000A1199049800EB8100049019985E
:1034C00004447745FFF455AF08B0BDE8F08FF0B580
:1034D000042BDDE9055400EB840427D0082B27D109
:1034E0002FE000236E0812E00F783F0902EB8707F8
:1034F00097ED000A80ED000A11F8017B07F00F0735
:1035000002EB870797ED000A80ED010A08301F469D
:103510005B1CB742E8D3EB0708D011F8013B1B094D
:1035200002EB830393ED000AA0EC010AA042D8D37A
:10353000F0BD11F8013B02EB830393ED000AA0EC10
:10354000010AA042F5D3F0BD2DE9F041C66B416BF5
:10355000044600258163CEB1D9B10120226CB04769
:103560000CE00220226CB047A06BFEF765FE074618
:103570000320226CA16BB0476D1CA763A16B0029CF
:10358000EFD106E0FEF758FE6D1CA063A06B00288B
:10359000F8D12846BDE8F08103460020596B002988
:1035A00008D0CB600A69401C8A4203D0002A01D0AF
:1035B0001146F6E770472DE9F041446B002594B1C0
:1035C000012600272079C00707D0216A204611B1C3
:1035D0008847304600E0384605442069A04202D0C2
:1035E00008B10446EEE72846BDE8F08110B570B199
:1035F00069B162B1074C0460D1E90041C0E9014101
:10360000D2E90012C0E903120123184610BD0020C0
:1036100010BD0000DECAFAA110B518B1044A016855
:10362000914200D000200446FEF7DAFB204610BD90
:103630000001C0A130B44AB140B139B1074C1368A0
:10364000A34206D130BC0C32FEF7FEBF30BC0020D6
:10365000704730BC1C32FEF7CFBF0000DECAFAA1B3
:1036600030B44AB140B139B1064C1368A34206D117
:1036700030BC121DFEF7E8BF30BC0020704730BCE4
:10368000FEF7BABFDECAFAA1F8B50E46FFF7C4FFCF
:1036900004000AD000270097A08D00B1206B694676
:1036A000FEF7D6FD050006D00BE01022114600F013
:1036B0007CF90020F8BD18221121204600F075F990
:1036C000009706B135800098F8BD0000034810B59A
:1036D0004469FEF785FB204610BD0000C841000884
:1036E0002DE9F04F89B00646DDE912104FF0000ACF
:1036F000554663F30705CDE9011361F30F259046A5
:10370000544660F317458346FEF79FFD304F010096
:103710001CD0304800680123C0F30220042806D0E2
:103720002D48182202600268182A13D00BE02B489B
:103730001422836083680BB1521EFBD1826812B9D8
:103740000068401C0AD00846FEF7F2FDF86909B08F
:10375000BDE8F08F03600268002AFCD10846FEF73E
:10376000E7FDFEF73DFBE6B11D49C8F80010C6F8BD
:10377000008000F05DF9B0B1FFF7A8FF8146C5F306
:103780000721E8B2002200F047F90546C9F30721F6
:1037900009F0FF00002200F03FF9854205D07C6867
:1037A0000BE0386AD3E73C6807E00EA000680090A1
:1037B0006846FFF7B5FD10B9BC68C6F800A0DDE9A2
:1037C00001105A4600F028F9C8F848002046BEE724
:1037D000C8410008002004E0084C025800300240B4
:1037E0000001C0A10384048410B5FFF715FF20B1C8
:1037F000BDE81040103000F015B90148806910BDD7
:10380000C84100082DE9F04F91B00C46FFF704FFC6
:10381000050013D0B4B13BA12068FEF737FF0600C6
:103820004FF0000B11D020680190D4E90301CDE9DD
:103830000401D4E90101CDE9020143E0002011B007
:10384000BDE8F08F1122102158E001212046D4F864
:1038500004A0FFF731FD804604F11C00D4F820904D
:1038600001211090FFF728FD07461422274906A8DA
:10387000FCF7A6FC0120B8F1000F02D0ADF81E0045
:1038800002E0ADF81EB0002408941FB1ADF8260088
:10389000109802E0ADF826B000200A90B9F1000FB0
:1038A00002D10FB1132206E0BAF1000F05D1B8F131
:1038B000000F02D0122210211FE0142206A901A835
:1038C000FCF77EFC86F00102144602A905F11C00FB
:1038D000FEF76CFE68B1224604A905F12400FEF74C
:1038E00065FE40B10320E8602846FFF755FE2846F4
:1038F000A5E7122200E013221621284600F055F811
:103900009CE70000696E6974000000002042000816
:1039100070B5FFF781FE041E08D0207B800706D417
:1039200010221121204600F040F8002070BD2046F2
:10393000FFF741FEE06B60B1656B55B1D4E90F3222
:103940002946002098472869A84202D008B10546B8
:10395000F4E7012070BD70B515460E46FFF75CFE1A
:1039600004462A463146FEF79BFE00281CD0A08D57
:1039700008B1256B00E00025012802D9266B0C3622
:103980000DE000260BE02846FEF7B1FF2046FFF7CA
:10399000DBFD3046FEF7DFFFE08A401CE082E08A74
:1039A000A18A8842EFD380B270BD002802D01030C7
:1039B00000F040B87047F8B50E46FFF72DFE040042
:1039C00007D000270097A08D012808D9206B0C3064
:1039D00006E010221146FFF7E8FF0020F8BD0020A6
:1039E0006946FEF735FC050005D118221121204655
:1039F000FFF7DBFF009706B135800098F8BD02465F
:103A00000068010A012004E05368491E53F8213080
:103A100058430029F8D17047000640EA014040EAC7
:103A20000220704700220168027002600846704759
:103A300001207047037813F0FF0F01D0002070477A
:103A40000170016862F31F210160012070472DE9B8
:103A5000F04F81699DB00F880FB14A6800E00022E5
:103A600052683AB10FB14A6800E000225268D2F8B9
:103A7000008001E04FF00008012F02D94A680C32A3
:103A800000E0002252684AB1012F02D94A680C3284
:103A900000E000225268D2F800C001E04FF0000CB4
:103AA000022F02D94A68183200E00022526842B15F
:103AB000022F02D94A68183200E0002252681368C7
:103AC00000E00023022F0BD94A6812F1180F07D02B
:103AD00032F8184F012C03D9526812B1526800E035
:103AE0000022D8F80C40DCF80C50D4F804A06E6822
:103AF0001796EE680596AD681695E5681B95A4685F
:103B00001594048DA4B21A94848DA4B21994C46B34
:103B10002588ADB20A95A488A4B20294048E1FFA37
:103B200084F9848EC069A6B2DC68A56864680B90CD
:103B3000D8F81800806814909869D0F808B00AB1D5
:103B4000926992681392DCF81820731E4FF0000CF3
:103B5000926812926A1E02FB03521192631EA9F12F
:103B6000010203FB02420E920268C2F3C613C2F3C3
:103B7000415823FA08F3C2F34342042A01D0082A29
:103B800024D1C26812B3032F02D94868243000E060
:103B90000020406878B1032F02D94868243000E043
:103BA00000204068D0F800C0BCF1000F03D0DCF862
:103BB0001800876800E00027DCF8180059464068C4
:103BC000CDE900A03846FFF782FC07B95F460B99A4
:103BD0000E9BCDE90F61CDE90D39DDE919310DF10C
:103BE00024080A98119E88E84B0002990694CDE9B2
:103BF0000751DDE91530179C1B99CDF800A0CDE9E0
:103C00000310CDE90143DDE913303A46129900F083
:103C1000F9F81DB0BDE8F08F2DE9F04F2DED028BC6
:103C200087B08069018809B1426800E000225268CB
:103C300032B109B1426800E000225268156800E024
:103C40000025012902D942680C3200E000225268A6
:103C500042B1012902D942680C3200E000225268C8
:103C6000146800E00024022902D94268183200E0FA
:103C7000002252683AB1022902D94268183200E0A3
:103C8000002252681268022993460BD9426812F149
:103C9000180F07D032F8183F012B03D9526812B120
:103CA000526800E000220492EA68E3684FF0000ADC
:103CB000D2F80480D3F80490D3E902235A43009247
:103CC000DBF818301A68C2F3C616C2F34157FE403B
:103CD0000696032902D94668243600E00026766855
:103CE00056B1032902D94068243000E00020406822
:103CF000006808B1866900E00026C2F3434004284A
:103D000001D008280ED1DF685EB1D6E90001FFF7C7
:103D1000F8F9D6F80CA002465146384600F00CFAE5
:103D200000E0BA46DBF8140000999FED358A406840
:103D30000390A0698468A86904EB890780680290F1
:103D400009FB01F004EB8000059051E0DBF818005E
:103D50008668049810B18069856800E00025BAF192
:103D6000000F35D00698042816D02EE015B1B5EC1A
:103D7000010A01E0B0EE480A8DED010ACDF800809D
:103D80005246314601A8029BFEF74CF903989DED7F
:103D9000010A0644A4EC010ABC42E7D322E015B1B3
:103DA000B5EC010A01E0B0EE480A8DED010ACDF84C
:103DB00000805246314601A8029BFEF7C9F90398DC
:103DC0009DED010A0644A4EC010ABC42E7D309E0D8
:103DD0002B46324620460299CDE9008900F0CAF808
:103DE00004EB8904029907EB890701EB8800029034
:103DF00005988442AAD307B0BDEC028BBDE8F08FD2
:103E0000000000002DE9F04F2DED028B9BB02F9CA0
:103E1000279E1592CDE91303C4F1000A00209FEDFF
:103E2000548ACDE91701DDE92C40444326984443E8
:103E3000179893E02E9840420F90CAF10000002896
:103E400000DC0020814629983299A0EB0A008842C4
:103E500000D30846289A0AEB09015143269AA0EBA1
:103E600009005143DDE9132B1090159D02EB8101F0
:103E7000DDF86080A5F100601291B0F1807F27D25B
:103E8000002722E0149810B1BBEC010A01E0B0EE6B
:103E9000480ADDE90F20CDE90602CDF81490DDE9EE
:103EA0002C3030990891289A2A990096CDE9033050
:103EB000CDE901212A464046269B1299FFF746FA92
:103EC00005EB840508F104087F1CB742DAD33AE019
:103ED000A000FEF76FF800270E902FE0002009E009
:103EE00005EB800191ED000A0E9901EB8001401C69
:103EF00081ED000A8442F3D8149810B1BBEC010A9A
:103F000001E0B0EE480ADDE90F123098CDE9071064
:103F1000CDE90592DDE92C10289B2A9A0096CDE97F
:103F20000310CDE901324046269B0E9A1299FFF705
:103F30000DFA05EB840508F104087F1CB742CDD3C8
:103F40000E98FEF709F82A981899704301EB800043
:103F5000189017983199401C8A4417902B998842E1
:103F6000FFF468AF1BB0BDEC028BBDE8F08F000022
:103F7000000000002DE9F04F06462DED028B81B0C8
:103F80009A46DDE90C98344606EB88078B461546C1
:103F90009FED168A0EE000BF8DED008A4B465A4613
:103FA00029466846FDF75CFF9DED000A05EB890593
:103FB000A4EC010ABC42EFD3BAF1000F11D00021EA
:103FC0000DE000BF06EB81000AEB810290ED000AD4
:103FD000D2ED000A491C30EE200A80ED000A41456E
:103FE000F0D301B0BDEC028BBDE8F08F0000000003
:103FF00070B505468069018809B1426800E0002279
:10400000526832B109B1426800E000225268146877
:1040100000E00024012902D942680C3200E00022AD
:10402000526842B1012902D940680C3000E00020FA
:104030004068066800E00026E86988B14068012809
:1040400004F108002CD0FFF7DAFC0246E869836827
:10405000A0698168B0698068BDE87040FEF76AB900
:10406000B0698668A069856804F10800FFF7C7FC9D
:1040700005EB800106EB8000DFED100A0BE000BFCE
:1040800091ED000AB5EEC00AF1EE10FA01D8B0EEDB
:10409000600A80ED000A001F091FA942F0D270BD1E
:1040A000FFF7ADFC0246E8698368A0698168B069E2
:1040B0008068BDE87040FEF793B900000000000082
:1040C0000146C0684A698969C068D2680968504376
:1040D000044A1140A1F58022C03A01D1C01DC00898
:1040E00070470000FFFF7F012DE9F0410B3020F009
:1040F0000706104D19E02068B04215D3B0420AD926
:10410000871B201DD4F80480FCF75AF8A019C0E9D9
:104110000078286004E060682860201DFCF750F8F3
:10412000201D2660BDE8F081251D2C68002CE2D101
:104130000020F7E704000020F0B588420ED0002AE6
:104140000CD08318814210D999420ED2114403E059
:1041500013F8012D01F8012D8342F9D8F0BD00BFFD
:1041600010F8013B01F8013B521E8B0701D0002AD9
:10417000F6D1170911E000BF50F8046B7F1E50F80C
:10418000045B50F8084B50F8043C41F8046B41F8CC
:10419000045B41F8084B41F8043C002FECD1C2F31A
:1041A000810304E050F8044B41F8044B5B1E002BE4
:1041B000F8D102F0030204E010F8013B01F8013BE2
:1041C000521E002AF8D1F0BD30100000011000008E
:1041D00002100000080100000102000001050000BB
:1041E000101000003341000010100000010000001A
:1041F00000000000010000000000000001000000BD
:104200000100000040040400000000000000000065
:104210000000000000000000010400000000000099
:10422000DECAFAA10000000000000000000000004B
:1042300000000000DDDDDDDDDCBBBBDDDDDDDDDD67
:10424000DDDDDDDD988888888888888877777777CE
:10425000778888888555555666666666666666669A
:104260006668888883333332222222222222222245
:104270002228888D0000000000000100D0040020EA
:10428000000001008C0500100400000098010010DF
:1042900004000000BC000020040000001401001015
:1042A00004000000C40200200400000058030010B5
:1042B000040000004802002004000000C8020010B2
:1042C00004000000AC0100200400000034020010D3
:1042D00000000000000000000000000000000000DE
:1042E00091D1093EF9F77C3DAD0649BEF4A4333DBA
:1042F0006CA3473D6FCE0C3E9D1EDBBDA6F295BD67
:10430000C54D34BD547830BEFE80EC3D7B08383C52
:1043100061FDC23D3DDA29BEB35A143E0F320CBED8
:1043200035223F3D300219BE15C2EDBCC213233DFC
:10433000F8759F3CBC73043E6E5D583C5C2432BDF6
:1043400035AB42BD3E4A103D4BA8DB3CC4CB333EAF
:104350007A22BFBD0BE180BD92FB04BEF4E5A43D13
:104360006A2EAB3DE0170FBD11C1903C61CE1D3DE3
:104370006A1071BD564DE83C12F9A63DBCDD693CA2
:10438000EF228B3DB3999BBDDCDB013D00A4EB3CF0
:10439000D298DFBD0506043DF190F43D0D7F183E37
:1043A000A1F8E1BC778ADD3D8743333D9777C9BDEE
:1043B00075EC9B3DA462A93D96CC4A392A6D083E16
:1043C00032E6013EF7ADB5BDFFF4E33D070B863D98
:1043D000FA88A33D1E43E93D3284E23C84928B3D42
:1043E0002F36573DE1B296BDEE773E3DD5D0033E28
:1043F000667A66BDC13E45BDC954213E8D9B163EC1
:1044000017267BBD0AADC13D2F777ABBC73E5E3D07
:104410005DA0193E7837F03BA44C35BDEF102D3D23
:10442000E3DDD43D7435A6BD4138DB3D4BCD1D3EAB
:104430005147223CA43EE13D6D161F3EBEAC9C3C64
:104440004DDFEE3D721DA13D4EEA62BDA800543E17
:10445000903851BD8B28C23DCB52093EF49CEEBC36
:1044600054A6123E67FB15BE3E2BF63D542CD53BA1
:104470000F15FDBD08827C3D6A952C3E551392BDFB
:104480005E15343C75994DBD6590D7BD0C245B3CE1
:1044900013940EBD3A3562BE6200B43D4194933B25
:1044A0006FD39BBD545F1A3E934A0EBD96D688BD0E
:1044B000362CA4BCEE3E223EC35966BE5077ADBD3D
:1044C0008A3907BDAC5B2CBEC76C483D1B0AA83DB2
:1044D0003DC43EBE705A0A3C1C907B3CAB82DCBCA7
:1044E000F7E681BDC1EE52BD7358B8BD67A5AA3DC0
:1044F000073E173B91492EBE819C5FBD7C9F223DAC
:10450000043E00BE6A7105BC7D44693D57DA42BE77
:104510000EB7943D7C15B3BC269BFCBC2BFFED3C39
:10452000182A0C3DABBA95BDD3AD973D10AF1E3EDA
:104530006D02BDBD975F223C225771BDE26C21BE6A
:1045400065A33ABDB0DC773DDFAF37BE2229D03C52
:104550008B77DE3DEA527DBD65582E3EA302BABD83
:10456000CC034CBE6FC7973D4459B63DBBEF84BDED
:10457000F3220A3C84602D3D16824CBE83C53B3D30
:10458000951600BD648ACABD5C2656BD2FFBCCBA09
:10459000748CE6BD8A20963DE20AF63CDFD0BCBDB5
:1045A000D6596BBDC62E003D2190B2BD470EBC3D15
:1045B0003713B7BB818413BE1FE129BD3523C7BDA7
:1045C000594E8CBEE9536C3DAB270D3EEB4037BED8
:1045D000453F1E3EF771DEBD3326C7BD359AE63D29
:1045E0001F3FEF3CEB7C2C3E67A6A03CE46BA8BDD4
:1045F0000F3C323EDC284EB9DC57C63DBE7C773ED0
:104600000BF1893DFEABE03D6ABD6A3D754477BD67
:1046100028B8E03CF4C8BF3D6BC9D6BBB081A1BC93
:10462000BC14253E2F47E43DE46B07BEDE5E7B3EB7
:10463000CA6B0EBD3594543DDC74B93DAD5188BD97
:104640005ABC733D167F493D134FC1BBEE17BDBC2D
:104650005FD2663E276C243DA9DFAC3DEA53703E35
:104660000454E53D18D8113E34AD003E940D80BD94
:104670001492B13DD8F3B83D254CD1BD1D8D86BDFA
:1046800091FE803ED7B4B7BB7381793DA2DD123E67
:104690009B212B3EAF00813D6B32B13DEF3D09BC0C
:1046A00030A8503D384D36BD7884413B9559973BF5
:1046B000ADD9CABC1E22E9BC480B9A3C6B717ABECC
:1046C000467945BCBA1F523DCF9E84BEA13EE7BB92
:1046D00026861A3E9C3805BE88B1383EA8FD113E9C
:1046E000557948BDF488193D2341213D726904BEC6
:1046F0001B96C43D0500163E2888ECBD09870C3E7C
:10470000BE09ACBDFE0082BE0443EABC4D340F3D81
:1047100045382FBEE4EB8A3D495CF0BD5E67F0BCD6
:104720002B5DB83D27213D3D9748B0BD009879BD30
:10473000157BD6BD7C384FBD7E91E73DBF146C3DE7
:104740004163FFBD443AED3DA614E5BBD76380BE8F
:10475000D511533D12685DBD23830FBEBCF6EB3D02
:10476000136E9CBD060F0E3EDAB0A03DDEFD183D77
:104770002C053E3E5110AA3D342EECBCE386843E0F
:104780006A5EF23A032A093D9ECA913E3728373EB7
:1047900010C11E3E15588F3EA9AEB83C5F51F33D87
:1047A000D515143E0758173E5A7E263EA6447E3E37
:1047B000DD382ABDB1BCF7BC0E0A813E5ACA7D3D28
:1047C000CBEE3B3ED29C8F3E5829493EB93DAFBD12
:1047D0000F9A3A3EDC07B9BC200EB93D1BE3863E7A
:1047E0004597133EB44753BD362A9C3D9D94B2BCB9
:1047F0008A96553E11BB633E13224D3E2D17ADBB2D
:104800000E95E13DED74613D15BD6B3C737B683EDB
:10481000E596D5BC56CEB4BC8E8C963DD360473D54
:10482000484BC53DAB70923CE5D1183E82317B3D93
:10483000666E61BC1FDAEBBCADDA0D3D87F6873CD6
:1048400039A872BD7CBB2BBCCAB3CB3DDD744DBD5A
:104850004B758CBDE85EF33C3A27053D6BD09ABDA5
:10486000E7A460BC20DFE9BC2FC75DBD1EDB4EBCEA
:10487000AD4032BD94C1BD3D478A0A3BBBA2BABC24
:10488000B451BE3DB548493D42F8263DF496BDBD04
:104890001610DA3CA9FF203DC45AC3BB008B2C3D47
:1048A000111C753DCBFFAF3D10DD73BD8090FC3D0D
:1048B0007D772CBBE26F8A3D3AA7013D014B47BD96
:1048C0000CC5B13C6AA40B3D760516BD1E5B723C5F
:1048D0002CA5463E655AC4387B3C793D22C4F73D41
:1048E0003FC4C0BDC6E8463CED28D2BD047EFEBD37
:1048F000163C713C3B50DDBDED70DEBD48AC903DDB
:104900005AB1B8BDC3CCB4BD04A20F3D4338B3BD4A
:1049100069A2F0BD1618853C3D9603BD547D5CBD73
:10492000D9F378BC61A45EBDA6DF7ABD6CF96C3C9E
:104930001DCF7ABDFF40EFBCB35E2FBC8AB370BD04
:10494000FC10043DD0B9233DA8605CBDBF40B43D20
:10495000E831C93C7BBB22BDFA19E43C5C4B4E3DBF
:10496000D5D6AF3D3A17133E4E4F58BDD8FDA03DAA
:10497000B8E4DD3D94F8D23C2A8DF93CE12AA53D0E
:104980007DD6463D17CDA43D1E12E43D221A67BDDB
:10499000F0CB233EDF4A3B3E6B7F06BDE10C8E3DF4
:1049A0009E46223ECC7CCC3CCB281F3DF944E6BC45
:1049B000A571AABD8808AF3DF49A223E038D51BE71
:1049C000A98B453C47A9053E42F09A3CAF61823D28
:1049D000700087BC73802BBE0A79CF3D6E7F183E76
:1049E000821B3B3C3BF992BC277B0E3E340806BD44
:1049F0006B53AF3D26EB22BD703720BE77DBEB3D1E
:104A0000B9CDC63D5FABDABDD6B4E83D1CCF173E8D
:104A1000F33F51BEC860283D1734E83D1DC616BCA3
:104A200079372B3C10C85F3D4BD7983D7567F73DF4
:104A3000E1A31D3D0483A0BDC81D813D29F0003EBA
:104A4000634B093DCB7F143BAFF9BFBC9E7342BDA6
:104A500058619BBDEEA79CBDAB32AA3D6D037E3D68
:104A6000669B5B3D2F9B5EBEECA5E33D5724EE3D70
:104A7000B81286BE9030723EDFBE013E004927BEAE
:104A80006E41843C7C15933DC7DB28BEFEE63E3D6F
:104A900054C7C9BD353AF8BDA8C34ABD9255EEBD4D
:104AA00008276DBE29A4113E09878ABCA3E5F2BD83
:104AB0002A4BD63B846395BD972DA6BDA297E73DB3
:104AC00063DD9DBDD37CF6BD4FFACDBC55B069BD4D
:104AD0005E6A4DBEB720AA3D157B12BDD7549BBE62
:104AE00001DBDF3D3508ADBCC46249BE040D7EBCB0
:104AF000A1BDA53D369F32BE89577E3D37A32F3CD1
:104B0000267D43BEC1B9C23D544478BDC993ADBDF5
:104B1000EF42D5BCCB573A3D426A47BE00B3933D06
:104B2000A3DDC63D391F763D969755BDDEA3DE3B1E
:104B3000C4CC543E8A640BBD0B09FB3DA6980C3EC9
:104B4000F0445A3DFDF1DA3D4375903E78F4E4BD02
:104B50009190A43DBE3A273EC983543DFFF8113ED3
:104B60003F93203E29B99EBD052A7D3CB6FB5E3EA3
:104B7000E8E023BC3894C93C71E24E3EF9BF88BDE1
:104B80008DC1CA3CD9288A3E93FE7EBD38DE103ED8
:104B9000DD12B53D610F53BCB640C73DC111E63DC6
:104BA000626987BD696C9B3D153F493EE7C78F3DF4
:104BB000C42756BC3BDF703E9D1B14BDB5A7463DC8
:104BC0003B845F3EF7F23C3E506BE3BBB2E8CA3D2C
:104BD0006DA5723DA680DEBC3CD7163E6877B63C1C
:104BE00082CCD23D35DA6EBE3A5BE73D07490C3EDA
:104BF000B5E852BEEAFC403D9AF89DBC69DF97BE1D
:104C0000FCD73C3EB12F38BDECD65ABEF5AA1E3DAE
:104C1000FC8BA8BC6601E6BDBE1E263E6790ED3B40
:104C2000B0E561BE4CCDFF3A1EF909BECE9017BE6D
:104C30000523D93D182A04BDC3D17FBEA73DAF3D92
:104C40005B71733D41AC3CBE4249723D3E90D8BA67
:104C5000F56B45BEF900D53DD03B8EBD190D89BE23
:104C6000CA801F3DD08D403C83EE33BEBD214ABD7E
:104C7000FA06FABDCDAC6ABEDA995F3D8DA9C03D9A
:104C8000B36B57BE6DA899BD6DEFCC3B186335BEB5
:104C90003AFB9E3D8A7FA73D08433FBE8A2DFE3DDD
:104CA000E0A8933C8EA9D3BD575F7CBD2D8B1DBA68
:104CB000477371BD6D7E293EA62852BD4FE828BEC0
:104CC000E0E64EBDE1EAC53D207FE1BD17A6443ECA
:104CD00023E02F3EA94FA1BD8B80963DEDFEA5BCE4
:104CE0003AC9C7BD6DA232BDB1ABDE3D2EF21CBDCF
:104CF0004F4BCB3DA1CC103E50620ABE52610FBD5E
:104D0000668307BE758733BE7CE0FD3BE91C60BD52
:104D10007CBFF2BD334C28BBB684A83D35A222BD72
:104D20000B09073EE86BE73C16E94BBEAEEC3D3B9A
:104D3000484E0F3EA06F82BD3D70183D4794193D0F
:104D400003D314BEA9F161BD39D38B3DE8C808BEB9
:104D5000797C713D5496133EB0EB48BDA80BD3BB94
:104D6000ADEB2DBEEE1F67BE48F4B73DFDAA5A3B22
:104D7000E58C42BE208E06BDB32E0FBE055194BEFB
:104D8000CBB6C23DF1D4D3BD8A61AEBDDDA6DA3D5E
:104D900063AF8C3D7F705CBE7FE9A53D757C953C23
:104DA000044EE8BC28C2873C076DFCBD192582BEB5
:104DB00054EF043E9AF89B3D420C20BEA3B4DC3D68
:104DC000F597A03D7EE0A5BE467B993D221F68BCBD
:104DD000855A9CBD9C6639BD748F58BDAD5550BE7B
:104DE00007F0003E984775BD962F3FBE42529C3D4E
:104DF000FE1EB23D704417BE319EF33D7774C5BDB3
:104E00000A5732BE738C3A3CFDDF333CF508F7BDE0
:104E1000F6032B3EDD0828BDF68A0EBE0F1753BDE4
:104E20007BD452BC4754EF3DCD9A0EBE24FD7E3D4F
:104E300029D69F3E73A1E4BCD06CDBBB86AC7C3E24
:104E4000B840EABCBDF43A3D5F535B3E8A9E8B3B63
:104E5000666CBB3CFC1AA23E48C5593DEF7932BC9A
:104E600057678E3E1509A6BCEE06EB3CD29B803EF2
:104E7000606077BD43A6803D09A6B33EC97814BEE5
:104E8000BDCF5BBDAB930F3E004D37BE33EAEA3D6D
:104E900086B2573E05C1B3BCBA7299BC6BBC3B3EEF
:104EA000AEDC903C6C6474BD080F9A3EB13AA8BC6D
:104EB000C06338BD9EBAAE3E9F24973C0E0B733C38
:104EC000970D143EAFBA33BE74C1D43DF865C53EEC
:104ED00090174A3D2AC5C2BDD55D3A3EA6C8CD3C15
:104EE000C8F6443C903E323E7AD4CFBC64A9923C92
:104EF000059A1D3EA2FDADBCEA9C9FBDF27D6B3EB6
:104F0000D7AD2D3CAF348BBDA0FE083E48F6AB3D7F
:104F10002E9B25BD639D563E8C4ADDBD88F6323DF5
:104F20002253153EE222B03D3AE9183E21736C3D12
:104F3000A26DD43BD7818F3CEFC1D03D90C8253EB8
:104F4000AD23983C1B45EC3D7677783DCB67A13D82
:104F500032456C3EC53615BDDDF2BC3C3832EA3D0B
:104F6000720FC83C7B5F1F3D447F2E3DBE42553BC8
:104F7000ACAD303C48FD7A3D29BBA6BD13C8A83D69
:104F8000681A1A3E8B19A33CEDE768BB7DDCC93D6E
:104F9000B1064C3C0F56F73DEE4E383D3762393E78
:104FA00034AF0F3EE09104BEB95D85BD42A4B83D6B
:104FB0007BF31ABE0E29163E87351A3E724917BE7C
:104FC000DB3C613D036787BD31B033BE6C2B1E3EB9
:104FD000D58A603D382120BD9CD2CBBC64993B3D35
:104FE00054BD09BDAC5A963D88004ABD0EFA18BDA5
:104FF000C02430BD2C21173EE5BDC7BC8AAEEC3BBA
:105000006433C83D5E9520BE7520A03D63DBC4BD02
:1050100016BF64BE55244A3DB05CCCBD0F897ABE34
:105020005F24F83DC1D081BCB72FA1BBBE981DBD88
:10503000A628D1BDB66B9CBC49837EBD9F76C6BCFD
:10504000DACD47BC4FECC43D9091193E43C543BEF9
:105050001170943D9864B53DC2A023BE4603033B46
:10506000F0C3ACBB3F435B3E3A5F06BD116A173DE0
:1050700095CE1F3EA1EE8B3C990ED63D6CF3613E62
:105080001E74E5BDD563E53D6022E33DDCBB013D1B
:105090004C238EBD2AAFBA3D3F477A3DDCE298BD36
:1050A000A341133E8AC51C3EF168CBBCD82A9F3D64
:1050B000D3E2D73D4D05E83B5AEA8C3E525036BD0F
:1050C000295BB13D5014013E304E84BD4CD6FDBD30
:1050D000664B253E338CC93D1834B2BD3A957F3EB0
:1050E000CCD5ABBCAA89E53CA6AE063EA65295BD82
:1050F000C9CDD63D5E10563DB120833CA4890A3E01
:1051000065AF833E4246F6BC5779593D88E4253E5B
:1051100086FD363E0DF2CE3D0E48A13DE6BCC23BBB
:10512000F8E9F7BC4F641BBDC8332FBDB086D23D34
:105130003BA8EFBD936DC23C0F9998BD53315CBE47
:10514000D8C40B3D7355C7BDE3665DBE99AA5E3EEC
:10515000B1F5863C93CA0BBD85D319BD1974673B65
:10516000CA6F2BBECBF8033E7D1BBC3DF249F2BD9E
:10517000467DAB3DFCB6073EEBD7C9BD9236C63C7B
:10518000076FA3BDA6DEFCBDBB150C3ED9B940BD63
:10519000C2DAAFBD8D3614BD75B646BDAF3600BEA2
:1051A0008BE2363E283C263E321CDBBD530056BD0A
:1051B000BC13A03C382DE4BDCA96063EC76FDABDCD
:1051C0007E638ABE7C513A3E6920303C95D11CBE3C
:1051D000FF114D3EE34E37BC6AAAB1BDE338B2BC05
:1051E0009776C93D055BC5BDA9F4863D93E1A03D19
:1051F000C3CAB5BD3291D23DB2956E3D7FE55CBE6E
:105200009CC2583D87A6813DFDF32FBEB119033DD9
:10521000635481BD27FB14BE742AAC3CD323223DCA
:10522000DFB3CDBD2A1223BDA2B13E3DC24A8CBE22
:105230002996C33D0FDA2DBDEBD61FBE827B133EF0
:10524000E002B43DC31D92BE19163E3E35DC443E1D
:1052500025E24CBE4AC433BCA492C63CCA8F0CBEE5
:10526000CE340D3ECAE0833DF4DBADBD120A33BD42
:10527000BD3597BDFF6366BEECA19BBD209946BCC2
:10528000D40C6CBE7C0E113CB814BA3CC79C7ABEE0
:105290002CB42F3E6D35033EBC565ABE57191D3EE9
:1052A000DD5A223E814CD23D9DD59E3AAAFCCC3C93
:1052B000EA62703E997A38BE4AEF01BDC9A6153E32
:1052C00068ACEC3C00339FBD44680E3EFC9EEABDDA
:1052D000F8C3D63CE1478F3EA91D173DD6FF473D99
:1052E00055C0313E53AFD5BD87DDB93D775D133E27
:1052F000E867693D540F8E3D16512B3EFC21E23D7F
:10530000467F3ABC9A27B23E2D808C3D1A7C7CBDEC
:10531000F1A97C3EEF546ABD72098B3DB671243E03
:10532000F3F1A4BD89FF963CB512463E0780BBBD94
:105330002A3EBA3D03CF243E5746023D980BAC3C73
:10534000696E5E3EA5039FBBDF9E783D023DFF3D3B
:1053500020A5983CDC2E0D3ED5F5513E377F1B3CF9
:10536000A3BA123E914850BDA75F86BDC1B31D3E92
:10537000C19B4DBEE95CDABC8E7CC4BD0C8A8ABD83
:10538000512B043E67A990BCFA5059BD8EE066BD12
:105390002289CB3CFC1968BEB43FA33D1ECBC0BDE7
:1053A000F67D43BEAB1BDE3D65F41B3E58BD57BECC
:1053B0009E778A3DBC28913D78F54FBE955D4ABAEF
:1053C000E328F13D2F9A37BE7CB0E43D5253D1BD66
:1053D00027A9B6BD9309813D508D283C642434BD76
:1053E00079B7A9BDADA710BE22BB6FBE8A32C7BDBB
:1053F00062E2843DFBCA80BD535C8D3DC7A64D3D36
:105400003BA41A3BF0BB4F3C238E06BB09A62DBE26
:10541000BBC546BCF9FFEC3D088019BEABF33C3C74
:105420003D3C053EABF6CABD317E2E3ED42A173E2A
:105430000AE320BE3B901EBD58D286BD4E1454BC1C
:10544000F0C9633D21C224BD2ED851BD7D57DD3C3E
:1054500099F2B1BDE3F933BE394D1B3EA8A2AB3C76
:105460000A8E57BE957D113E7495123EE5D80CBE4E
:105470007F4BB4BA47EE033E28F20ABE79D0573DBF
:10548000C5DE953DFB19FDBD942FF13C1E5C89BD29
:10549000A2F50FBD022FA139542BF4BD5A403CBEDA
:1054A0001F75083E5DD6EFBD344904BC2864DA3D63
:1054B000E37E803D3B3B2ABC9597F03CCE96E63C94
:1054C00085213DBEAAC51ABD5EF90B3C1E57E5BD40
:1054D00016B229BDFFA507BAA8CCCFBCCF5E423C0F
:1054E00009F684BC227835BE30A5BF3D3365623DE8
:1054F000A6D421BE2A47BF3D66422C3D620A0DBE9E
:105500006004D23DF3CCB63E6804F13DCBAD04BDA2
:1055100080F2BA3D400F253D50460B3E3DF7383EE8
:10552000098E4ABEE075913ED2481BBE82F840BD4E
:105530008A83343BC4C8193D90AE6D3E9ECF3A3E3F
:10554000BD009D3E84D1133E149F8EBD70F11A3D67
:10555000D7305D3E953D10BEBC76023E7CB1B63D77
:105560001C0C2CBD20D5E5BA9DDBA3BE6A01223EF2
:10557000133CC5BEB55DB1BD7784C2BEB5401A3F10
:10558000BDE61D3EB9801ABDF6074F3E534391BE9E
:10559000748364BEAA3A3C3EEEEB0C3D57939CBD2F
:1055A000EA60BA3E0E05293E1BD77DBCC29FD53CA2
:1055B0009F5BB23D50353E3E4DB40F3E6FAB373E24
:1055C00097E81ABFD7CD813D3F52113C3B87073E3C
:1055D0002CD2A0BA8BF1973D0871FCBBCB8E8B3ED1
:1055E00038933B3EC3EE19BD8E05833EB12A3ABDCA
:1055F0000C4F393DF94FF0BD02DC39BE773E91BD0D
:10560000326C9D3E3924B73A30EB103DB2C13F3D7C
:10561000212895BC5639123D79710BBC89B30C3DDC
:10562000072B0CBF9616803CF22F6E3D1DD83EBD59
:105630006FBA593D9D19B83C0ED1D13DBF62A4BD92
:1056400017ED943AFAB2CC3C8AB081BCAEA46F3D5F
:105650004DEE253DE5B275BDDEEB043DE3BC403DBE
:1056600029690A3FD4D2843E1E9222BEF2AF943DF5
:10567000F522983EE4FCA0BD5C445B3E0167463DDC
:10568000B7102CBF02CB05BEF9B4A1BD8A818F3EF5
:105690000A20D5BD1145353E758901BEE1A3B73E4F
:1056A0003254863E56F34ABE8EFC913E9F35213ED3
:1056B000D1E7D93D1585753E559421BEBB40293EA5
:1056C0001500003FF2327B3BF54FA5BD5BB180BCBE
:1056D0005CE29C3D80FD8CBD8056713E8F58063E3D
:1056E000D30F22BF67256A3C3A21AA3D80D4A53E4C
:1056F000459A36BC71A0EABD1DE28C3C95E6733E2E
:10570000FF5C833EF5B0013DA0E9983E927691BDE5
:10571000798EB7BDD4844F3D97B7EFBC4567BFBD09
:10572000DE5A6DBE863DAD3BA01C143E303C493E6A
:10573000FE7073BE8896733E9F60323E9F68C2BD06
:105740007DF61D3FD3A9B73DF407263EFF0E54BE9C
:10575000F9DDC83D8B123A3E683520BE6B0620BE8F
:10576000A9EA80BEAC352A3ECC1946BE0972A33CDC
:105770000EB2313EC1001FBE20CB243EE8BD663EC6
:105780005220823E2F31013EFE148CBD673482BE12
:10579000F105873E15712F3D0F343F3D6FD79E3C7D
:1057A0007E3E92BD7FC5EE3C08BF98BD8DF5833C23
:1057B000028E97BE43D679BDC136B9BE0F5A093F96
:1057C000DCC993BCFB257EBEBF32A53E57DBC5BD01
:1057D00059E761BEE1BBD13E10E86CBE8D495EBDAC
:1057E0007D4C033E6933773B75F492BE8BD915BE71
:1057F00080F64E3ECEDC79BE1AFD513EE197223D49
:10580000D50FAEBC68A05D3D6B8F7FBEBC43313E03
:10581000940FB5BE0D22ADBD1A29C7BEF67CE83E79
:10582000BFA6023D24A6BC3D3623D33D1EE644BEA2
:10583000235D56BE44F6E83E25AD12BEE09B173B05
:10584000ECB5B0BA8EB0BF39285FB3396C662DB8ED
:10585000E4768ABA90726A3A047C25BAB1CC493AA5
:105860007CAC7DBB13AF58392BAA0AB75A5DD73928
:10587000550FB038FD19B6B96A949639EE3D7E39A8
:10588000DAF538BA6758FAB9E0342BBA7C439CB8D9
:1058900057C7C837C5C0A6B75748D4B956412339EA
:1058A000F2418CBE0E670BBE29A44F3E780E5F3EC0
:1058B000AD648ABC9AB1563E9973AD3D3EC492BD6B
:1058C000B3E5133F3015B93DE90C243E308E573D0A
:1058D000CF27093EC228B33DE32D2FBE2CDC84BE6A
:1058E000049A5CBEC1E5343E4B6C2FBDDBA88D3DF8
:1058F000FAFE5A3E2AFD40BD71E8403EC25A083DBC
:105900001FDC97BE138615BE2224443D4BCA543D6E
:1059100046CE2DBE37256F3EF9905FBCFE1129BDE6
:105920005704363F83167C3E82A8793ECC8B8ABBD7
:10593000646148BD59284C3E1C661F3DFAE081BE9B
:10594000D86E13BEC69D523E2483573A39017BBDA3
:10595000EC072BBDA36E0ABEBE84733EA1A43EBD60
:1059600030B9C1BEF7C9143DD6036E3EEC8281BD8D
:10597000426D37BEB2A0453E24C9AA3D7009E1BDC3
:105980001D80073F8563673EE9D204BEFF247FBCCC
:10599000FAC6263E79E898BC6A5B0FBD92D8A4BED1
:1059A0006D7C38BC7B57B0BD7FF3F9BD48820E3E9D
:1059B00010C1753EE3512EBE78CE2F3EF7F52D3E39
:1059C000F26DD83E6E461FBE169AB1BDE87E72BD1E
:1059D000F8BA78BD592DA33EC048D13EFBB9D03EA0
:1059E000836CD8BABED0083EF54E753E20BC843ECE
:1059F00017B1453FCED6C03EEA12463EDF93C43EC5
:105A000063C1883C13DCA9BE0B65573F5ABA863F79
:105A100055364F39505C71BE449386BE196EA6BE92
:105A2000BCF65ABF0B120CBE7E1746BE5F2293BE59
:105A3000E09AE1BEDAA3EC3DCE6827BF3F5061BFDC
:105A400039374FB9D2CC25BD49B6A53EA36B173E19
:105A500058C13EBEFADE57BD03175540A8431D404E
:105A6000E7D6403F9A635ABF3B45F9BFF02238C0A2
:105A7000CC832AC0F62A17C039F0AEBF8F11E3BE1F
:105A8000C0714D3F0287024094D63E40A9195C4048
:105A9000AE12374096448D3F74F51EBFF53DCBBF27
:105AA000F6F7EFBF81E7CABF29AACABF864751BE32
:105AB00076AB7ABE55DB903FE69BAA3F8D46CC3F46
:105AC0002E369D3FED2085BD8E9F33BF2338D1BF3D
:105AD0007D2D85BF0585D5BEDA72DC3F530A43BFF5
